:100000000C94F3010C943A020C943A020C943A02C8
:100010000C943A020C943A020C943A020C943A0270
:100020000C943A020C943A020C944E1D0C94201E2F
:100030000C9460140C943A020C943A020C943A0218
:100040000C943A020C943A020C943A020C943A0240
:100050000C943A020C94C8140C943A020C943A0290
:100060000C943A020C943A020C943A020C943A0220
:100070000C943A020C943A020C943A020C943A0210
:100080000C943A020C943A020C943A020C943A0200
:100090000C943A020C943A020C943A020C943A02F0
:1000A0000C943A020C943A020C943A0205030703AA
:1000B000120309030B030D030F03110314031603AB
:1000C000180323031A031C031E0320032203250322
:1000D000510A510A830A830AC10AE10A510C510CE0
:1000E000230B510CD00BD00B410C510C510C4A0C72
:1000F000DD0BDD0BDD0BDD0BDD0BDD0BDD0BDD0BC0
:10010000DD0BDD0BDD0BDD0BDD0BDD0BDD0BDD0BAF
:10011000EE0BFC0B030C0A0C140CE00CE00CF20CC4
:10012000F20CE90CF20CF20CF20CE00CE00CEE0C10
:10013000F20CF20CEE0C8D1EB41EA61FB41EA61FF0
:10014000001F231FA61F791F881F290014001A00F3
:100150000800150017001C0018000C001200130006
:100160002A002C00E00004001600070009000A0025
:100170000B000D000E000F00330034002800015169
:100180001D001B00060019000500110010003600BC
:1001900037003800E500000001001E001F002000AD
:1001A0002100220023002400250026002700010052
:1001B0004C0001003A003B003C003D003E003F0087
:1001C0004000410042000100010001000100025115
:1001D0002C000100010001000100010001000100EC
:1001E00001000100000001000100520001000100B7
:1001F00001000100010001000100010001000100F7
:100200000100500051004F000100010001000100F9
:1002100001000100010001000100010001000100D6
:1002200001000100010001000100010001000100C6
:100230000100000004033000000012036B006500A1
:10024000790062006F006100720064000000160314
:1002500071006D006B006200750069006C00640045
:100260006500720000000403090409026D00040126
:1002700000A0FA0904000001030101000921110195
:1002800000012240000705810308000A090401005B
:100290000103010200092111010001224D0007059F
:1002A000820308000A09040200010300000009217A
:1002B000110100012236000705830308000A090422
:1002C000030001030000000921110100012239008F
:1002D000070584032000011201100100000008ED51
:1002E000FE606001000102030105010906A101058C
:1002F0000719E029E7150025019508750181020518
:10030000081901290595057501910295017503915B
:10031000010507190029F71500250195F8750181D8
:1003200002C005010980A101850216010026030013
:100330001A81002A8300751095018100C0050C09FF
:1003400001A1018503160100269C021A01002A9CC6
:1003500002751095018100C005010902A101090182
:10036000A10005091901290515002501950575014B
:10037000810295017503810105010930093115815B
:10038000257F95027508810609381581257F95011D
:1003900075088106050C0A38021581257F950175BF
:1003A000088106C0C005010906A101050719E02959
:1003B000E7150025019508750181029501750881F1
:1003C0000105081901290595057501910295017529
:1003D0000391010507190029FF150026FF00950666
:1003E00075088100C00011241FBECFEFDAE0DEBF28
:1003F000CDBF04B603FE27C080911D0290911E025E
:10040000A0911F02B09120028730904BA740B04BC3
:10041000D1F410921D0210921E0210921F0210922F
:10042000200214BE84B7877F84BF0FB6F894A895C6
:1004300080916000886180936000109260000FBE20
:10044000E0E0F8E3099511E0A0E0B1E0E8E9F0E4CC
:1004500002C005900D92A833B107D9F722E0A8E3B6
:10046000B1E001C01D92AD31B207E1F70E94751AEB
:100470000C944A200C9400000895089581E008959A
:1004800081E008950C9440020E940D13811106C072
:100490000E941813811102C00E948F130C9436061B
:1004A0000C94380608950C9452020C94530208954B
:1004B0000E94CE0C0E9457022FEF84E39CE0215053
:1004C00080409040E1F700C000000C94EE14FF92D1
:1004D0000F931F93CF93DF938C01FC01C081D181D7
:1004E00080915B01811113C08281882349F0CE0184
:1004F0000E940012F82E682FCE010E94A51104C0A0
:10050000CE010E94D411F82EBE018F2D04C0CE0161
:100510000E940012BE010E94D903EC01B8010E94A2
:100520004202882309F43AC1C631FCE5DF0709F429
:1005300001C170F4C130ECE5DE0751F120F4C115C2
:10054000DC45F1F01EC1C531ECE5DE07E0F119C173
:10055000C83DFCE5DF0709F4D2C050F4C63DECE528
:10056000DE0709F482C0C73DDC4509F4A1C009C11A
:10057000CB3D8CE5D807B9F0CC3DDC45D9F001C1C5
:10058000F8018281882309F409C10E94580206C13A
:10059000F8018281882309F401C18091DA01816028
:1005A0008093DA01FBC0F8018281882309F4F6C048
:1005B00080E006C0F8018281882309F4EFC082E060
:1005C0000E94111BEBC0F8018281882309F4DEC070
:1005D0000E940D13811102C00E948F130E943413D8
:1005E00090E090930F0280930E02FE01E350FC45D1
:1005F000E231F10530F4EA5AFF4F80910E020C947B
:10060000EE1F80910E02816027C0826025C0846049
:1006100023C0806121C080621FC080641DC08068CB
:100620001BC08460886018C08E7F16C08D7F14C088
:100630008B7F12C08F7E10C08F7D0EC08F7B0CC051
:100640008F770AC08B7F877F07C087FB222720F91F
:1006500091E0922790FB87F980930E0280910E0221
:100660000E9438130E94CE0C99C0F8018281882321
:1006700051F010923D010E94921490933A018093A0
:10068000390182E022C080913D0181110FC080912B
:10069000390190913A010E949E14883C910530F4F2
:1006A00086E20E94A70886E20E94A50982E024C093
:1006B000F8018281882361F010923E010E94921419
:1006C00090933C0180933B0180E20E940D0A66C03A
:1006D00080913E0181110FC080913B0190913C01BE
:1006E0000E949E14883C910530F487E20E94A7087E
:1006F00087E20E94A50980E20E94140A4FC0F80117
:1007000082818111D9CF80913E018111F4CF8091F6
:100710003B0190913C010E949E14883C910558F742
:1007200080E20E94140A88E20E94A70888E20E94E0
:10073000A50934C00E94D112282FF801828140916E
:10074000000150910101882379F02A7A91E009F49F
:1007500090E090933801911102C069E201C065E315
:10076000CA010E94ED130AC080913801811102C0B4
:1007700069E201C065E3CA010E94F8130E949E125B
:100780000DC081E080933D0180933E01C801DF915F
:10079000CF911F910F91FF900C943E0280E0DF916A
:1007A000CF911F910F91FF90089580E090E0089500
:1007B00008959DE0799FF001112497E2899FE00D53
:1007C000F11D1124E60FF11DEE0FFF1FE65BFE4F3A
:1007D000859194910895880F991FFC01EC5CFD4F61
:1007E000859194910895CF93DF930E94D9030E943D
:1007F0009605EC01811520E59207F0F5811530E4AE
:10080000930708F018C1883E910500F5803E9105D8
:1008100008F088C1883A910570F4853A910508F08E
:100820009AC08130910509F47DC108F434C1049760
:1008300008F078C130C18D3B910508F497C0803C29
:10084000910508F428C1805C9109E7C081159042A8
:1008500058F4C11581E0D80708F064C1C03FD10544
:1008600008F419C1D0655EC1C11590E3D90708F03D
:10087000D8C0CE019F70D1C0811525E5920708F040
:1008800043C0811534E5930708F0ECC0811542E5BB
:10089000940708F5C11581E5D80708F0CFC02C2FC3
:1008A000237081E090E002C0880F991F2A95E2F73B
:1008B0009C689E0174E0369527957A95E1F7237040
:1008C000922BCF70C695C69530E2C39FE0011124EC
:1008D000C82BD92B27C1869586959E012370332777
:1008E000C115D34508F0AFC040E2849FC001112478
:1008F000C1E0D0E002C0CC0FDD1F2A95E2F78C2BBF
:100900009D2BEC01DC680EC1811529E5920778F476
:10091000811538E5930708F0AAC08115964508F0BF
:10092000BAC0CF71DD27DC2FCC27D062FBC0C11548
:100930008AE5D80708F4A0C0CE01905681159042F0
:1009400008F0A9C08D2F8F710E941306DD27D06299
:100950008F71D82BE7C0853A910509F49FC0863A7C
:10096000910509F09EC0C2E8D0E4DCC0883A910548
:1009700009F49AC0893A910509F499C08A3A910517
:1009800009F498C08B3A910509F497C08C3A910507
:1009900009F496C08B3B910509F495C08C3B9105F9
:1009A00009F494C08D3A910509F493C0803B9105F8
:1009B00009F492C08E3A910509F491C08F3A9105DD
:1009C00009F490C0813B910509F48FC0823B9105E9
:1009D00009F48EC0833B910509F48DC0843B9105D9
:1009E00009F48CC0853B910509F48BC0863B9105C9
:1009F00009F48AC0873B910509F489C0883B9105B9
:100A000009F488C0893B910509F487C08A3B9105A8
:100A100009F486C0C0E0D4E485C00E94EB03EC0179
:100A200081C0CE019927D3FF03C0EC01D86C7AC0F6
:100A3000EC01D06C77C0DF70D06A74C0DC2FCC279B
:100A4000C16FD06A6FC040E2849FC0011124C1E031
:100A5000D0E002C0CC0FDD1F2A95E2F7C82BD92BBE
:100A6000DA6860C0D82FCC27C46FD06A5BC0D82F9B
:100A7000CC27C06FD06A56C08C2F8F70806E90E0EC
:100A8000906A24E0D695C7952A95E1F7CF709C012E
:100A90003C2BE90147C0C0E0D0E044C0C1E8D0E44D
:100AA00041C0C3E8D0E43EC0C2EED4E43BC0C9EECE
:100AB000D4E438C0CAEED4E435C0C5EBD4E432C0C7
:100AC000C6EBD4E42FC0C3EBD4E42CC0C4EBD4E415
:100AD00029C0C7EBD4E426C0CCECD4E423C0CDECD1
:100AE000D4E420C0C3E8D5E41DC0CAE8D5E41AC0E8
:100AF000C2E9D5E417C0C4E9D5E414C0C1E2D6E424
:100B000011C0C3E2D6E40EC0C4E2D6E40BC0C5E215
:100B1000D6E408C0C6E2D6E405C0C7E2D6E402C007
:100B2000CAE2D6E4CE01DF91CF91089582389105D3
:100B300049F1B0F48133910509F458C048F4893281
:100B4000910509F44EC08A32910509F454C0089504
:100B50008533910509F440C08933910599F00895D2
:100B6000833E910529F138F4803E910591F0823E53
:100B70009105A1F00895863E9105F9F0873E910513
:100B800031F1089520910E0220FD3AC021FD38C0B8
:100B9000089580910E0280FD35C032C080910E0212
:100BA00082FF32C080910E0284FD30C083EE39C0D6
:100BB00080910E0282FD28C0F5CF80910E0283FF46
:100BC00027C080910E0284FD21C087EE2AC080914B
:100BD0000E0283FD1DC0F5CF80910E0285FD1AC067
:100BE0001BC080910E0285FD17C014C080910E02BB
:100BF00086FD14C015C080910E0286FD11C00EC086
:100C000080EE0FC089E30DC082EE0BC080E009C00A
:100C100086EE07C089E205C085E303C08AE201C011
:100C200081E390E0089590910E0292FF0DC0282F6D
:100C30002871283019F4877F846006C0282F24711A
:100C4000243011F48B7F886093FF0DC0282F28710A
:100C5000283119F4877E846106C0282F247124313D
:100C600011F48B7E886194FD877E08950C943C027C
:100C70000C943D02E0E2F1E041E050E023E02E0F71
:100C80009191A92FA295AF70B0E091963C91919768
:100C90009F70BA0102C0660F771F9A95E2F7CB01E9
:100CA0008095832391968C932E13EACFA3E1B1E034
:100CB00041E050E02DE02A0F8D91E82FE295EF7092
:100CC000F0E031A18F70BA0102C0660F771F8A95DC
:100CD000E2F7CB01962F9095932391A392A1892BB4
:100CE00082A32A13E9CF1092460110924501109277
:100CF000400110923F01109248011092470110925A
:100D000042011092410110924A0110924901109241
:100D10004401109243010C9444024F925F927F92DF
:100D20008F929F92AF92BF92CF92DF92EF92FF92FB
:100D30000F931F93CF93DF9320E2E22E21E0F22E58
:100D4000CFE3D1E001E010E0992493946E01A880F4
:100D5000B98019821882D7018D917D01E82FE29523
:100D6000EF70F0E021A18F70A80102C0440F551F61
:100D70008A95E2F7CA01242B21A322A1842E809414
:100D8000282122A350EA5A95F1F793E1492E91E0E8
:100D9000592E20E030E0D2017D912D01472F429560
:100DA0004F7050E0DA0190967C90488159817F70B5
:100DB000D80102C0AA0FBB1F7A95E2F7BD016721D7
:100DC00041F4B801022E02C0660F771F0A94E2F7C1
:100DD00002C060E070E0462B572B598348832F5F99
:100DE0003F4F2D303105B9F691A1892281A292A100
:100DF000892B82A32296F60180819181A816B906DB
:100E000041F090924B010E94921490934D01809377
:100E10004C01F1E0C534DF0709F098CF80914B0118
:100E2000882311F180914C0190914D010E949E14F4
:100E30000697D0F080913F01909140019093460138
:100E40008093450180914101909142019093480126
:100E500080934701809143019091440190934A010E
:100E60008093490110924B010E94500281E0DF9172
:100E7000CF911F910F91FF90EF90DF90CF90BF9097
:100E8000AF909F908F907F905F904F900895E82F44
:100E9000F0E0EE0FFF1FEB5BFE4F80819181089524
:100EA000089590935301809352010895E091520167
:100EB000F0915301309721F00190F081E02D0994D9
:100EC00080E00895E0915201F0915301309721F0B4
:100ED0000280F381E02D09940895E0915201F09190
:100EE0005301309721F00480F581E02D0994089595
:100EF00020915001309151018217930771F0909326
:100F0000510180935001E0915201F09153013097CB
:100F100021F00680F781E02D0994089520914E017B
:100F200030914F018217930771F090934F01809396
:100F30004E01E0915201F0915301309721F000846D
:100F4000F185E02D0994089508950C94A40781E09B
:100F500008950E94891485B7806885BF85B7806829
:100F600085BF0E943A060C945E154F925F927F9265
:100F70008F929F92AF92BF92CF92DF92EF92FF92A9
:100F80000F931F93CF93DF93CDB7DEB72A970FB69A
:100F9000F894DEBF0FBECDBF0E948D060E94A7074A
:100FA000811111C08FEF89838A831B820E94921462
:100FB0008160782F9D838C8349815A816B818D81DB
:100FC0000E94730857C095E5C92E91E0D92E00E024
:100FD00010E0AA24A394B12C702E802F0E94470702
:100FE0004C01F601419051906F0148265926411459
:100FF000510431F40F5F1F4F0330110569F7D2CF51
:101000008091DA0181FD0E94500720E030E07501F7
:10101000022E02C0EE0CFF1C0A94E2F7C7018421E5
:101020009521892B09F12E837F828E209F2091E0CC
:10103000892809F490E098870E9492148160782FA3
:101040009A8789874E815F8168858A850E947308A7
:10105000000F111FF801EB5AFE4F80819181E826A5
:10106000F926F182E08206C02F5F3F4F2D30310517
:1010700071F6C0CF0E940118109154010E945607CA
:101080001817D9F00E945607809354012A960FB67C
:10109000F894DEBF0FBECDBFDF91CF911F910F91AE
:1010A000FF90EF90DF90CF90BF90AF909F908F9088
:1010B0007F905F904F900C9455022A960FB6F8944B
:1010C000DEBF0FBECDBFDF91CF911F910F91FF907B
:1010D000EF90DF90CF90BF90AF909F908F907F90D8
:1010E0005F904F900895CF93DF93CDB7DEB72B97E6
:1010F0000FB6F894DEBF0FBECDBF4F835887698708
:101100007A878B87DE01119686E0FD0111928A9520
:10111000E9F785E0FE01379601900D928A95E1F797
:1011200049815A816B817C818D819E810E94750FDE
:101130002B960FB6F894DEBF0FBECDBFDF91CF91D7
:101140000895FC01808191810E943F1208958823B7
:1011500009F4FAC08238C1F40E94560781FDF4C038
:1011600069E380910001909101010E94ED130E94BA
:101170009E122FEF81EE94E0215080409040E1F7E5
:1011800000C0000069E319C08338F9F40E945607D3
:1011900080FDDAC063E580910001909101010E9419
:1011A000ED130E949E122FEF81EE94E021508040BB
:1011B0009040E1F700C0000063E58091000190914C
:1011C00001010E94F8130C949E128438C1F40E940D
:1011D000560782FDB9C067E480910001909101013A
:1011E0000E94ED130E949E122FEF81EE94E0215099
:1011F00080409040E1F700C0000067E4DECF9CEF44
:10120000980F913A40F4682F80910001909101016C
:101210000E94ED13D8CF90E2980F983050F4877069
:1012200091E001C0990F8A95EAF7892F0E94D412A4
:10123000CACF9BE5980F933070F4853A29F0863A2F
:1012400031F083E890E005C081E890E002C082E8D8
:1012500090E00C94780798E5980F953108F06EC0EF
:10126000883A61F1893A69F18A3A71F18B3A79F1F8
:101270008C3A81F18B3B89F18C3B91F18D3A99F15C
:10128000803BA1F18E3AA9F18F3AB1F1813BB9F1DE
:10129000823BC1F1833BC9F1843BD1F1853BD9F15C
:1012A000863BE1F1873BE9F1883BF1F1893BF9F1BC
:1012B0008A3B09F43FC080E090E03EC082EE90E0BF
:1012C0003BC089EE90E038C08AEE90E035C085EBF7
:1012D00090E032C086EB90E02FC083EB90E02CC012
:1012E00084EB90E029C087EB90E026C08CEC90E086
:1012F00023C08DEC90E020C083E891E01DC08AE817
:1013000091E01AC082E991E017C084E991E014C02D
:1013100081E292E011C083E292E00EC084E292E0AA
:101320000BC085E292E008C086E292E005C087E249
:1013300092E002C08AE292E00C948E07803F20F097
:101340000E9409170C94F6170895882309F464C0C5
:10135000823879F40E94560781FF5EC069E380916C
:101360000001909101010E94ED130E949E1269E319
:1013700010C08338B1F40E94560780FF4DC063E56A
:1013800080910001909101010E94ED130E949E1234
:1013900063E580910001909101010E94F8130C9483
:1013A0009E12843879F40E94560782FF35C067E4A4
:1013B00080910001909101010E94ED130E949E1204
:1013C00067E4E7CF9CEF980F913A10F4682FE1CFD4
:1013D00090E2980F983050F4877091E001C0990F17
:1013E0008A95EAF7892F0E94DA12D9CF9BE5980FE8
:1013F000933020F480E090E00C94780798E5980F03
:10140000953120F480E090E00C948E07803F20F02E
:101410000E9471170C94F6170895882321F00E94FA
:10142000D4120C949E120895882321F00E94DA129F
:101430000C949E1208954F925F926F927F92BF928A
:10144000CF92DF92EF92FF920F931F93CF93DF9390
:101450007C01D62FC72FFC01058102950F701281E8
:1014600011110E94F1120E949712882379F0112322
:1014700069F080E28D0F883048F082E00E9480128F
:101480000E94971291E0B82EB92601C0B12CCC2E43
:10149000C2948FE0C822D12CF601E859FF4F0C947A
:1014A000EE1F8C2F807FCF70882311F0C295C07FF4
:1014B000112399F0CC2309F4CFC180E28D0F88303D
:1014C00010F0D11104C08C2F0E94D41203C08C2FB5
:1014D0000E94E4120E949E12BFC18D2F0E94A50996
:1014E000CC2309F4DEC180E28D0F883010F0D111D9
:1014F00004C08C2F0E94DA1203C08C2F0E94EA12C3
:101500000E949E12CEC18C2F807FCF70803211F04E
:10151000C295C07FDD2319F0D130C9F022C011235C
:1015200071F0002341F0013031F40E940A138C2B3A
:101530000E940413B6C10E940A138C2B46C10023DB
:1015400019F0013009F4ADC10E94071318C011232E
:1015500021F0063008F0A5C10EC0053008F0A1C189
:101560000EC0112351F0002331F0F701858180FF77
:1015700073C18F7085838C2F28C101117EC18C2F80
:101580002AC18C2F86958695837090E0009719F07C
:10159000019761F086C1112321F08D2F9C2F93704C
:1015A00002C080E090E00E9478078BC1112321F0F7
:1015B0008D2F9C2F937002C080E090E00E948E07D8
:1015C00080C11123F9F0D53F51F0D63F71F0D43FDF
:1015D000A9F4809108029091090281600BC080916A
:1015E000080290910902826005C0809108029091E2
:1015F0000902846090930902809308028D2F0E9453
:1016000009171EC0D53F51F0D63F71F0D43FA9F461
:1016100080910802909109028E7F0BC08091080290
:10162000909109028D7F05C0809108029091090276
:101630008B7F90930902809308028D2F0E9471176F
:101640000E94F6173EC18C2F837009F050C0111113
:1016500034C18D2F829586958770880F880F9D2FB6
:101660009F70492E512C612C712C082E04C0440C03
:10167000551C661C771C0A94D2F7D4FF14C00FE0E7
:1016800010E020E030E0B901A80104C0440F551F6C
:10169000661F771F8A95D2F7CB01BA0160957095C6
:1016A0008095909503C060E070E0CB01C695C6952B
:1016B000C370D0E0C230D10561F0C330D10581F0F4
:1016C0006429752986299729219771F00E94BA10FB
:1016D000F4C064297529862997290E94CC10EDC091
:1016E0000E94BA10C301B2010E94A810E6C01123E3
:1016F00019F08C2F817001C08695882309F4DDC014
:101700008D2F829586958770880F880F9D2F9F70EB
:10171000492E512C612C712C082E04C0440C551CF0
:10172000661C771C0A94D2F7D4FF14C00FE010E0B7
:1017300020E030E0B901A80104C0440F551F661F26
:10174000771F8A95D2F7CB01BA0160957095809585
:10175000909503C060E070E0CB01C695C695C3705C
:101760004C2F50E04230510569F04330510589F06B
:1017700064297529862997294130510571F00E9405
:1017800080119BC064297529862997290E9492118E
:1017900094C00E948011C301B2010E946E118DC0DD
:1017A0008D2F90E0FC01E05EF109E531F10508F0D4
:1017B0004FC0E858FF4F0C94EE1FDF708C2F8F71D5
:1017C000112331F00E9407118D2F0E940D0A69C06C
:1017D0000E9428118D2F0E94140A63C0112341F02A
:1017E000053008F05EC08C2F8F710E944D1159C0DA
:1017F000063008F056C0F7CF112339F08C2F8F71C7
:101800000E9407114EC01123C9F38C2F8F710E94C3
:10181000281147C0112329F08C2F8F710E94F210DC
:1018200040C00E94ED103DC0112349F0CF718C2FB4
:101830000E94071163E08C2F0E94771232C081E072
:101840000E948012023068F182E00E94801229C05A
:10185000112331F0002391F28D2F0E94A70821C09F
:10186000002399F2D93349F45FEF67EE73E05150EA
:1018700060407040E1F700C000008D2F0E94A50974
:1018800010C04C2F4F706D2FC7010E94D5030E94CE
:10189000191017C04C2F4F706D2FC7010E94D8032D
:1018A00010C088E0C816D10441F05CF0EAE0CE1A1E
:1018B000D108F2E0CF16D10420F40E9456070E940E
:1018C0005502BB20F1F00E94731280FD1AC0F7018F
:1018D00012820E946D120E940711C7010E948F0C94
:1018E0000E946D12DF91CF911F910F91FF90EF90A9
:1018F000DF90CF90BF907F906F905F904F900C944F
:101900002811DF91CF911F910F91FF90EF90DF9001
:10191000CF90BF907F906F905F904F9008950F93FE
:101920001F93CF93DF93EC01888199812B813C81B8
:10193000232BB9F09F3F11F48F3F99F0CE010E9405
:101940006702882371F0688179818A810E944A1236
:101950008C010E94A4110E94A510B801CE010E9422
:101960001B0ADF91CF911F910F9108950E94F112F0
:101970000E94011380910001909101010E940314C3
:101980000E949E120E949C180E94F61780E090E030
:101990000E94780780E090E00C948E070E94E1128C
:1019A0000C94B60C0E943F12E92FE295EF70F0E024
:1019B0003297EE30F105B0F4E357FF4F0C94EE1F71
:1019C000803F91F018F4803E68F40EC0843F51F4DB
:1019D0000BC0803E48F0813F29F406C093FB882766
:1019E00080F9089580E0089581E00895CF93DF9312
:1019F00000D000D01F92CDB7DEB70F900F900F90A0
:101A00000F900F90DF91CF910895CF93DF9300D087
:101A100000D000D0CDB7DEB726960FB6F894DEBF63
:101A20000FBECDBFDF91CF9108951F93CF93DF936A
:101A3000C0915C0116E080915D01C81799F0D0E07B
:101A40001C9FF0011D9FF00D1124E25AFE4F4081B2
:101A5000518162817381848195810E94050D219657
:101A6000C770E9CFDF91CF911F91089540918E010A
:101A700050918F016091900170919101809192013C
:101A8000909193010C94050D8091930182958F7034
:101A900009F054C080919001882309F44FC08091CF
:101AA0005C01A0915D0160918E0170918F01409168
:101AB000910150919201B6E08A1709F43FC090E07D
:101AC00041155105C1F17F3F11F46F3FA1F1B89F5E
:101AD000F001B99FF00D1124E25AFE4F21817213DB
:101AE0002AC02081621327C02281211124C02381B2
:101AF00034812417350710F421503109241B350B8C
:101B0000283C3105C0F4209193012F70206120936F
:101B1000930126E0289FF001299FF00D1124ED5933
:101B2000FE4F80818F70806180838EE891E00E94FB
:101B30008F0C0C94150D01968770BECF0895CF922F
:101B4000DF92EF92FF920F931F93CF93DF93CDB766
:101B5000DEB762970FB6F894DEBF0FBECDBF8C0123
:101B600085E0F801DE011D9601900D928A95E1F75E
:101B7000D8014C9111965C91119712966C91129725
:101B80001396CD90DC90149730918E0170918F0157
:101B90008091910190919201009709F46BC17F3F70
:101BA00019F43F3F09F466C1E0909001EE2009F47A
:101BB000C0C020919301C816D90628F0F601E81B91
:101BC000F90BCF0104C0809590958C0D9D1DFF24CD
:101BD000F394883C910578F0F12C207F09F0C6C081
:101BE0007C2DD98AC88A89890E94F60C8EE891E0FA
:101BF0000E948F0CB1C0822F807F09F046C0751300
:101C000014C0341312C0611110C02F7020612093D2
:101C100093010E94360D8EE891E00E948F0C809116
:101C20009301D80115968C932EC0CD2819F15F3FF2
:101C300011F44F3FF9F0F62E61111CC080915C0148
:101C400020915D0136E0821709F45AC090E0389F78
:101C5000F001399FF00D1124E25AFE4F71815713A4
:101C600006C07081471303C07281711103C00196D1
:101C70008770E9CFF62E662309F427C1809193017E
:101C8000816080939301F12C20C1751308C0341337
:101C900006C0611104C080919301D801C3C04D8773
:101CA0005E878D859E856A8B0E94D20C6A89882307
:101CB000E1F16623D1F120919301822F82958F70FB
:101CC00090E0029774F080918E0190918F01988737
:101CD0008F831986DB86CA862C87CE0107960E94E1
:101CE0008F0C86E0F801AEE8B1E001900D928A9584
:101CF000E1F70E94440D0E94360DFF24F394E5C0E5
:101D00004D875E878D859E850E943F12292F2295E3
:101D10002F7030E0223031050CF0CBC09F7009F0FD
:101D2000C5C0805E883008F4D0C0C8010E948F0C06
:101D3000E4CFC816D90608F453C0F601E81BF90B26
:101D4000CF01883C910508F450C0F12C7C2DD98A34
:101D5000C88A89890E94F60CEEE8F1E086E0DF018E
:101D60001D928A95E9F70E94360DAFC0751314C015
:101D7000341312C0611110C080919301F801858362
:101D8000C8010E948F0C86E0EEE8F1E0DF011D92B1
:101D90008A95E9F7FE2C99C04D875E878D859E85D3
:101DA0006A8B0E94D20C6A89882309F4BECF66230D
:101DB00009F4BBCF20919301822F82958F7090E020
:101DC00002970CF48ECF80918E0190918F019A83AF
:101DD00089831B82DD82CC822E83CE0101967FCF48
:101DE000809590958C0D9D1DACCFF62E662309F441
:101DF0009CCF75132EC034132CC02091930120FD6D
:101E00001FC0822F82958F70D9F0D80115962C9320
:101E100015978F3049F08F5F982F9295907F822F82
:101E20008F70892B15968C93C8010E948F0C86E0C9
:101E3000F801AEE8B1E001900D928A95E1F793CFF9
:101E400086E0F801AEE8B1E001900D928A95E1F7E5
:101E50003CC04D875E878D859E850E94D20C811186
:101E600040CF80919301816080939301C8010E94CB
:101E70008F0C2BC0662309F458CF4D875E878D8564
:101E80009E850E94D20CF82E882309F44ECF86E05E
:101E9000F801AEE8B1E001900D928A95E1F78EE885
:101EA00091E00E94A1080E94440D5DCF811139CFBD
:101EB0000CC0243031050CF038CF9F7009F431CFBD
:101EC000F8019581907F09F02CCF8F2D62960FB687
:101ED000F894DEBF0FBECDBFDF91CF911F910F9160
:101EE000FF90EF90DF90CF9008951F93CF93DF93F3
:101EF000CDB7DEB72C970FB6F894DEBF0FBECDBFBF
:101F00004F83588769877A878B879C87CE0107968E
:101F10000E949F0D882369F08F8198852A853B85D3
:101F2000232BF1F19F3F09F063C08F3F09F060C0A0
:101F300037C086E0FE013796DE01119601900D92C2
:101F40008A95E1F76F817885EA85FB85309741F1C5
:101F50007F3F11F46F3F21F120915D0130E0C90115
:101F600001968770992740915C0150E0841795078E
:101F700009F447C069837A83FD83EC8396E0929FDE
:101F8000D001939FB00D1124A25ABE4FFE0131968D
:101F900001900D929A95E1F780935D010E94150DD5
:101FA00016E080915C0190915D018917C1F1189F45
:101FB000C0011124825A9E4F0E949F0D882379F1FF
:101FC000E0915C011E9FF0011124E25AFE4F408116
:101FD000518162817381848195810E94050D809178
:101FE0005C0190E001968770992780935C01D9CFBE
:101FF0004F81588569857A858B859C850E94050D62
:10200000CFCF0E94CE0C10925D0110925C01EEE8E1
:10201000F1E086E0DF011D928A95E9F7C1CF2C96A9
:102020000FB6F894DEBF0FBECDBFDF91CF911F91E9
:102030000895EF92FF920F931F93CF93DF938C013C
:10204000892B09F46CC0F12CEE24E394E80121966D
:10205000F8018491843740F4843008F051C0813015
:1020600081F0823019F15BC0853709F444C0A8F1D2
:102070009CE7980F903708F052C08F770E94A5090F
:1020800041C00E5F1F4FFE01C49180E28C0F88306B
:1020900048F4C7708E2D01C0880FCA95EAF70E94D8
:1020A000F41214C08C2F0E94A7082DC00E5F1F4F82
:1020B000FE01C49180E28C0F883058F4C7708E2DD9
:1020C00001C0880FCA95EAF70E94FA120E949E1278
:1020D0001AC08C2F0E94A50916C00E5F1F4FFE016B
:1020E000C491CC2381F08FE99FE00197F1F700C004
:1020F0000000C150F6CF0E5F1F4FFE01F49003C0E9
:102100000E94A7088E018F2D882309F49FCFEFE945
:10211000FFE03197F1F700C000008150F5CFDF916B
:10212000CF911F910F91FF90EF90089508950C9417
:1021300096100E9497106093B1017093B201809342
:10214000B3019093B4010C94B60C08950C949910BB
:102150000F931F930091B1011091B2012091B3012F
:102160003091B401602B712B822B932B1F910F9117
:102170000C9499100F931F930091B1011091B2012B
:102180002091B3013091B401602371238223932302
:102190001F910F910C9499100F931F930091B1010F
:1021A0001091B2012091B3013091B40160277127E1
:1021B000822793271F910F910C94991008950C94E6
:1021C000DE100E94DF106093AD017093AE0180932A
:1021D000AF019093B0010C94B60C60E070E0CB01BD
:1021E0000C94E1100F931F9341E050E060E070E029
:1021F0008A019B0104C0000F111F221F331F8A9503
:10220000D2F7C901B8011F910F910C94E1100F93FF
:102210001F9341E050E060E070E004C0440F551FA0
:10222000661F771F8A95D2F78091AD019091AE011C
:10223000A091AF01B091B0018A019B01082B192B2D
:102240002A2B3B2BC901B8011F910F910C94E1106F
:102250000F931F9341E050E060E070E004C0440F32
:10226000551F661F771F8A95D2F740955095609548
:1022700070958091AD019091AE01A091AF01B091A8
:10228000B0018A019B01082319232A233B23C9019A
:10229000B8011F910F910C94E1100F931F9341E02F
:1022A00050E060E070E004C0440F551F661F771FC8
:1022B0008A95D2F78091AD019091AE01A091AF01C6
:1022C000B091B0018A019B01082719272A273B27D3
:1022D000C901B8011F910F910C94E1100F931F9346
:1022E0000091AD011091AE012091AF013091B0018C
:1022F000602B712B822B932B1F910F910C94E1106B
:102300000F931F930091AD011091AE012091AF0189
:102310003091B00160237123822393231F910F9189
:102320000C94E1100F931F930091AD011091AE0139
:102330002091AF013091B001602771278227932748
:102340001F910F910C94E11008952DE0929F800D44
:102350001124A82FA695A695A695877051E001C0D7
:10236000550F8A95EAF785E0A89FD001112420E057
:1023700030E070E0F901EA0FFB1FEC56FE4F4081A0
:10238000CB01022E02C0969587950A94E2F78170E0
:102390009927819584278523842780832F5F3F4F4A
:1023A0002530310539F708952DE0929F800D1124D5
:1023B000682F669566956695982F977085E0689F5B
:1023C000B001112440E050E080E0FA01E60FF71F71
:1023D000EC56FE4F208130E0092E02C0369527953D
:1023E0000A94E2F721703327042E01C0220F0A94C9
:1023F000EAF7822B4F5F5F4F4530510531F7089563
:10240000CF92DF92EF92FF920F931F93CF93DF93C0
:102410008C01C090B101D090B201E090B301F09076
:10242000B4018091AD019091AE01A091AF01B09146
:10243000B001C82AD92AEA2AFB2ACFE1D0E0D70185
:10244000C6010C2E04C0B695A795979587950A945A
:10245000D2F780FF06C0B8018C2F0E94F3030197CA
:1024600021F4219760F780E001C08C2FDF91CF919C
:102470001F910F91FF90EF90DF90CF900895CF9331
:10248000DF93EC010E940012BE010E94F303DF9172
:10249000CF9108951F93CF93DF93EB0190915B0150
:1024A000992321F0CB010E943F1213C0882349F0E9
:1024B000CB010E940012182F682FCE010E94A51197
:1024C00004C0CB010E94D411182FBE01812F0E949D
:1024D000F303DF91CF911F9108958091B501859508
:1024E0008595859508958091B5018770089598E048
:1024F000899F90011124262B2093B5010C9407117C
:102500002091B501809582238093B501982F977013
:1025100069F430E0482F082E000C550B24173507BE
:1025200029F08595859585950C94281108959091AD
:10253000B501977081E009F480E00895E091000111
:10254000F09101018091D9018083E0910001F09127
:10255000010190818091D801892B8083E091000155
:10256000F091010190818091D701892B8083809126
:10257000B601882381F0E0910001F0910101908182
:10258000892B808380910001909101010E94911319
:1025900081111092B60180910001909101010C947B
:1025A00062078091D90108959091D901892B809378
:1025B000D901089580959091D90189238093D901FB
:1025C00008951092D90108959091D801892B809394
:1025D000D801089580959091D80189238093D801DE
:1025E00008951092D80108959091D701892B809376
:1025F000D701089580959091D70189238093D701C1
:1026000008951092D70108958093B601089510920D
:10261000B60108958091B601089580E090E00E948F
:10262000102021E08D3E9E4F09F020E0822F08957A
:1026300080E090E00E94102021E0019609F020E067
:10264000822F089582E090E00C940820682F82E0A9
:1026500090E00C94162083E090E00C940820682F02
:1026600083E090E00C94162084E090E00C94082025
:10267000682F84E090E00C941620AB01BC018FE041
:1026800090E00C942820AB01BC0183E190E00C9415
:10269000282060E070E0CB010C94431360E070E010
:1026A000CB010E943D130C9449136DEE7EEF80E048
:1026B00090E00E94342060E082E090E00E941620CA
:1026C00060E083E090E00E9416201092B101109229
:1026D000B2011092B3011092B40160E084E090E086
:1026E0000E94162060E085E090E00E94162060E0E5
:1026F00086E090E00E9416206FEF87E090E00E9455
:10270000162040E050E0BA0188E090E00E942820C6
:1027100060E08DE090E00E9416200C944E130C9423
:102720005513FC0131969C01205E3F4F80E0919152
:1027300091118F5FE217F307D1F708959C01FC0117
:1027400032969FEF80E04191461789F09F3F19F440
:10275000411101C0982F8F5F8E31A9F79F3F39F04B
:10276000F901E90FF11D97FDFA9562830895089527
:10277000FC01329680962081261301C0108231968A
:10278000E817F907C1F70895262F2695269526956F
:102790002F3168F4FC01E20FF11D677021E030E099
:1027A00001C0220F6A95EAF78181282B21830895C1
:1027B000262F2695269526952F3170F4FC01E20FE1
:1027C000F11D677021E030E001C0220F6A95EAF741
:1027D00020958181282321830895209112012223AD
:1027E00029F020910E0227FD0C94C4130C949E1323
:1027F00020911201222329F020910E0227FD0C9432
:10280000D8130C94B813FC01319680961192E817F6
:10281000F907E1F7089508950C940B140E940C1425
:1028200080911402843049F11092DB0120E488E1A8
:1028300090E00FB6F894A895809360000FBE2093A7
:10284000600080E00E9455020E940C1483B7817FD3
:10285000846083BF83B7816083BF7894889583B792
:102860008E7F83BF0FB6F894A89580916000886131
:1028700080936000109260000FBE0895089508953F
:10288000CF930E943E140E948D060E943F14C0E028
:102890008C2F0E944707892B29F4CF5FC330C1F7E3
:1028A00080E001C081E0CF91089508950C94551403
:1028B0000E94CE0C0E9456070E9455020C9456149A
:1028C0001F920F920FB60F9211248F939F93AF9385
:1028D000BF938091DB01811113C080910A02909116
:1028E0000B02A0910C02B0910D024196A11DB11DE9
:1028F00080930A0290930B02A0930C02B0930D02F6
:10290000BF91AF919F918F910F900FBE0F901F902D
:10291000189582E084BD93E095BD9AEF97BD8093B2
:102920006E0008952FB7F89480910A0290910B02DF
:10293000A0910C02B0910D022FBF0895CF92DF92AB
:10294000EF92FF920F931F932FB7F89440910A02D2
:1029500050910B0260910C0270910D022FBF6A0121
:102960007B01EE24FF248C0120E030E0C016D1066C
:10297000E206F30610F4415051099A01281B390B65
:10298000C9011F910F91FF90EF90DF90CF900895B4
:1029900078941F920F920FB60F9211248F939F93EA
:1029A000AF93BF9380910A0290910B02A0910C0209
:1029B000B0910D020196A11DB11D80930A02909362
:1029C0000B02A0930C02B0930D02BF91AF919F91A7
:1029D0008F910F900FBE0F901F90189581E08093FC
:1029E000E00080E28093D8001092C9008FE19EE45D
:1029F0000197F1F700C0000087E090EBDC018093C5
:102A00001D0290931E02A0931F02B09320029CE02F
:102A100088E10FB6F894A895809360000FBE90935C
:102A20006000FFCFAF92BF92CF92DF92EF92FF9202
:102A30000F931F93CF93C0E0CC24C394D12CE82EE6
:102A4000F12C8C2F0E9447075C0100E010E09601FA
:102A5000002E02C0220F331F0A94E2F72A213B21E5
:102A6000232B31F40F5F1F4F0D30110581F70AC082
:102A7000602F7C2F80E00E94D903E816F90691F7B9
:102A800081E004C0CF5FC330E1F680E0CF911F91B9
:102A90000F91FF90EF90DF90CF90BF90AF9008958F
:102AA000CF93C82F8CE20E941215882321F08C2F1F
:102AB000CF910C94121580E0CF910895CF930E948E
:102AC0000D13811102C00E948F13C5E6C15049F059
:102AD0000E948D068FE39CE90197F1F700C000008A
:102AE000F5CF89E20E94501581110FC18AE20E9440
:102AF000501581110E948F1385E00E94501581119D
:102B00000E94EE140E9422138093DA0187E00E9453
:102B100050158823A9F18BE10E945015882351F0AC
:102B20008091DA0181FB222720F991E0922790FB26
:102B300081F90EC08EE00E945015882361F08091CB
:102B4000DA0182FB222720F991E0922790FB82F99B
:102B50008093DA0115C080E10E9450159091DA014E
:102B6000882341F093FB222720F981E0822780FB14
:102B700093F904C0892F809580FB90F99093DA0136
:102B80008091DA010E9426130E94341390E0909302
:102B90000F0280930E0280EE0E945015882341F0B0
:102BA00080910E02982F909590FB80F980930E02F1
:102BB00089E30E945015882359F080910E0281FB11
:102BC000222720F991E0922790FB81F980930E0251
:102BD00082EE0E945015882359F080910E0282FBEC
:102BE000222720F991E0922790FB82F980930E0230
:102BF00086EE0E945015882359F080910E0283FBC7
:102C0000222720F991E0922790FB83F980930E020E
:102C100083EE0E945015882359F080910E0284FBA8
:102C2000222720F991E0922790FB84F980930E02ED
:102C300085E30E945015882359F080910E0285FB90
:102C4000222720F991E0922790FB85F980930E02CC
:102C500081E30E945015882359F080910E0286FB73
:102C6000222720F991E0922790FB86F980930E02AB
:102C700081E10E945015882359F080910E0287FB54
:102C8000222720F991E0922790FB87F980930E028A
:102C900080910E020E94381387E20E945015C82FBF
:102CA0008EE10E9450158111C2608FE10E94501583
:102CB0008111C46080E20E9450158111C86081E2D8
:102CC0000E9450158111C06182E20E94501581114D
:102CD000C06283E20E9450158111C06484E20E94A8
:102CE0005015882311F0C06802C0CC2329F08C2F26
:102CF0000E942F136C2F03C00E942B13682F70E0CB
:102D000080E090E0CF910C94A610CF91089580912F
:102D1000DE0180FF0BC06091050185E0689FB00176
:102D2000112475956795759567952BC081FF09C02E
:102D30006091050185E0689FB00111247595679544
:102D400020C082FF07C06091050185E0689FB00147
:102D5000112417C09091DF019923D1F060910401F3
:102D6000961788F72091050185E0289F900111248E
:102D7000929FA001939F500D112470E0CA010E9400
:102D8000DA1F6038710540F46115710539F002C031
:102D900065E070E0862F08958FE7089581E008953B
:102DA0008091DE0180FF08C06091030170E075959D
:102DB00067957595679521C081FF06C060910301F5
:102DC00070E07595679519C082FF04C0609103019A
:102DD00070E010C09091DF019923C1F06091020171
:102DE0009617A0F780910301899FC001112470E01C
:102DF0000E94DA1F6038710528F46115710521F011
:102E0000862F08958FE7089581E0089561E070E0CE
:102E1000F4CF803F21F40E948716819504C0813F42
:102E200029F40E9487168093E2010895823F21F4DD
:102E30000E948716819504C0833F29F40E9487165B
:102E40008093E1010895893F19F40E94D01605C0CE
:102E50008A3F31F40E94D01681958093E301089552
:102E60008B3F21F40E94D016819504C08C3F29F439
:102E70000E94D0168093E4010895843F21F480914C
:102E8000E001816017C0853F21F48091E0018260FC
:102E900011C0863F21F48091E00184600BC0873F20
:102EA00021F48091E001886005C0883F31F4809171
:102EB000E00180618093E00108958D3F21F48091CD
:102EC000DE0181600BC08E3F21F48091DE018260C3
:102ED00005C08F3F29F48091DE0184608093DE017C
:102EE0000895803F39F48091E20187FF6CC0109211
:102EF000E20169C0813F29F48091E2011816BCF318
:102F000062C09091E101823F29F497FF5CC010926A
:102F1000E10159C0833F19F41916CCF354C0893F1D
:102F200041F48091E30118160CF04DC01092E301BA
:102F30004AC08A3F29F48091E30187FF44C0F6CF5D
:102F40008B3F39F48091E40187FF3DC01092E4018A
:102F50003AC08C3F29F48091E4011816BCF333C0C9
:102F6000843F21F48091E0018E7F17C0853F21F4DA
:102F70008091E0018D7F11C0863F21F48091E001B6
:102F80008B7F0BC0873F21F48091E001877F05C0D4
:102F9000883F31F48091E0018F7E8093E00113C07F
:102FA0008D3F21F48091DE018E7F0BC08E3F21F496
:102FB0008091DE018D7F05C08F3F29F48091DE0175
:102FC0008B7F8093DE018091E10181110EC08091A1
:102FD000E20181110AC08091E301811106C0809154
:102FE000E401811102C01092DF01089580EE91E0AA
:102FF0000E946D070E9492149093DD018093DC0182
:1030000008951F93CF93DF938091DC019091DD01B0
:103010000E949E14AC019091DF01992321F0209130
:10302000060130E006C0209107018AE0289F900148
:1030300011244217530708F47BC08091E101C0912D
:10304000E201D091E3011091E401811107C0C111A7
:103050006BC0D11169C0111167C06AC09F3F19F0E0
:103060009F5F9093DF01181624F40E9487168093C7
:10307000E1018091E10187FF05C00E9487168195DB
:103080008093E1011C1624F40E9487168093E201CC
:103090008091E20187FF05C00E9487168195809389
:1030A000E2013091E1013323E1F02091E20122239A
:1030B000C1F045EB3403C0011124892F990F990BFE
:1030C000009709F481E08093E10135EB2303C0010F
:1030D0001124892F990F990B009709F481E08093AF
:1030E000E2011D1624F40E94D0168093E301809122
:1030F000E30187FF05C00E94D01681958093E3010C
:10310000111624F40E94D0168093E4018091E4010A
:1031100087FF05C00E94D01681958093E401DF915E
:10312000CF911F910C94F6179F3F09F099CFA1CF33
:10313000DF91CF911F910895E0EEF1E085E0DF018E
:103140001D928A95E9F71092DF011092DE01089531
:103150008091050208950F931F93CF93DF9300D0C2
:103160001F92CDB7DEB78C010E94211B823011F077
:10317000843019F593E099831B830A839093E900C7
:103180008FEF9091E800815095FD06C095ED9A95DE
:10319000F1F700008111F5CF8091E80085FF0DC0A7
:1031A00040E050E063E070E0CE0101960E943E1BDB
:1031B0008091E8008E778093E8000F900F900F9039
:1031C000DF91CF911F910F910895CF93DF9300D09E
:1031D0001F92CDB7DEB720911402243031F522E0E2
:1031E0002983805891099B838A8383E08093E90037
:1031F0008FEF9091E800815095FD06C095ED9A956E
:10320000F1F700008111F5CF8091E80085FF0DC036
:1032100040E050E063E070E0CE0101960E943E1B6A
:103220008091E8008E778093E8000F900F900F90C8
:10323000DF91CF910895CF93DF93EC010E94211B82
:10324000823011F08430F9F482E08093E9009FEF3E
:103250008091E800915085FD06C085ED8A95F1F7D3
:1032600000009111F5CF8091E80085FF0CC040E08F
:1032700050E065E070E0CE010E943E1B8091E800C6
:103280008E778093E800DF91CF910895CF93DF93FD
:10329000EC010E94211B823019F0843009F047C0F4
:1032A000809112018823E1F080910E0287FF18C0FF
:1032B00084E08093E9008FEF9091E800815095FDC4
:1032C00006C095E19A95F1F700008111F5CF809144
:1032D000E80085FF2CC040E050E060E270E017C0DD
:1032E00081E08093E9008FEF9091E800815095FD97
:1032F00006C095ED9A95F1F700008111F5CF809108
:10330000E80085FF14C040E050E068E070E0CE01C6
:103310000E943E1B8091E8008E778093E80080E257
:10332000FE01A5EEB1E001900D928A95E1F7DF91E3
:10333000CF91089580911302811109C00E94D31C7E
:103340000E94301D8091E20084608093E200089525
:10335000109213020895089508950C94581442E0B1
:1033600061EC81E00E944D1C42E061EC82E00E9431
:103370004D1C42E061EC83E00E944D1C42E261EC96
:1033800084E00C944D1C80911602833009F455C0E2
:1033900030F4813071F0823009F48EC008958A30A3
:1033A00009F47AC08B3009F460C0893009F09CC000
:1033B00020C080911502813A09F096C08091E80002
:1033C000877F8093E8008091190290911A02892BDF
:1033D00021F460E285EE91E003C060E080E090E0DF
:1033E00070E00E94891B8091E8008B778093E80051
:1033F000089580911502813209F076C080911902FA
:1034000090911A02009719F0039709F06DC080910E
:10341000E800877F8093E8008091E80082FD05C086
:10342000809114028111F8CF5FC08091F1008093E8
:1034300005028091E8008B7753C080911502813A94
:1034400009F052C08091190290911A02892B09F05B
:103450004BC08091E800877F8093E8008091E8006E
:1034600080FFFCCF8091120136C08091150281321D
:10347000D9F58091190290911A02892BA9F58091B2
:10348000E800877F8093E8000E94821C80911702E9
:10349000809312010C94CE0C80911502813221F59B
:1034A0008091E800877F8093E8000E94821C8091D1
:1034B000180280930602089580911502813AA1F4C2
:1034C0008091E800877F8093E8008091E80080FF8A
:1034D000FCCF809106028093F1008091E8008E7706
:1034E0008093E8000C94821C089584B7877F84BF82
:1034F0000FB6F894A8958091600088618093600071
:10350000109260000FBE80E880936100109261000D
:103510000E94A5070E94D31C0E94301D8091E200EA
:1035200084608093E20078940E94BF1F0E94A907E4
:1035300088E091E00E94510780911402853069F47F
:103540000E940E14809112028823B1F30E9440144D
:10355000882391F30E94281BEFCF0E94B507ECCF80
:103560000C94B21A292F332723303105C9F064F4A3
:103570002130310581F02230310509F049C08DE656
:1035800090E02AE632E048C02132310521F12232B2
:10359000310571F13DC082E190E027ED32E03CC0A1
:1035A00099278130910571F02CF4892B89F5E6E695
:1035B000F2E00DC08230910541F0039749F5E4E354
:1035C000F2E005C0EEE4F2E002C0EAE3F2E084914A
:1035D00090E09F0121C064307105D0F4660F771F21
:1035E000FB01E15DFE4F2081318189E090E014C054
:1035F0006430710568F4FB01EE0FFF1FE95DFE4FBB
:1036000020813181FB01ED5DFE4F808190E004C09F
:1036100080E090E020E030E0FA01318320830895DB
:103620000895CF93C82F0E94101BC0930702CF911B
:10363000089580911402843011F081E0089582E0B1
:10364000089580910702811102C00C94191B0895FE
:1036500080E189BD82E189BD09B400FEFDCF809182
:10366000D8008F7D8093D8008091E00082608093A5
:10367000E0008091E00081FDFCCF0895CF92DF92C1
:10368000EF92FF920F931F93CF93DF93EC018B0187
:103690006A010E94A11C811133C0C114D10439F008
:1036A000F60180819181081B190BC80FD91FE12CED
:1036B000F12C0115110519F18091E80085FD16C066
:1036C0008091E8008E778093E800C114D10449F01E
:1036D000F60180819181E80EF91EF182E08285E099
:1036E0000FC00E94A11C882321F30AC089918093F6
:1036F000F10001501109FFEFEF1AFF0ADACF80E065
:10370000DF91CF911F910F91FF90EF90DF90CF90BD
:10371000089520911B0230911C022617370748F0AC
:103720006115710539F42091E8002E772093E800A7
:1037300001C0B90140E061157105A9F120911402A1
:10374000222309F443C0253009F442C02091E80047
:1037500023FD40C02091E80022FD32C02091E80006
:1037600020FFE9CF4091F3002091F20030E0342BAC
:10377000FC01CF016115710559F02830310540F485
:1037800081918093F100615071092F5F3F4FF1CF1C
:1037900041E02830310509F040E02091E8002E7723
:1037A0002093E800C8CF4111C9CF0AC0809114020C
:1037B000882361F0853061F08091E80083FD0AC0C4
:1037C0008091E80082FFF2CF80E0089582E00895C2
:1037D00083E0089581E0089520911B0230911C023E
:1037E0002617370748F06115710539F42091E80074
:1037F0002E772093E80001C0B901FC0120E061159B
:10380000710591F180911402882309F440C085303C
:1038100009F43FC08091E80083FD3DC08091E8003D
:1038200082FD2FC08091E80080FFE9CF2091F30056
:103830008091F20090E0922B6115710559F088306B
:10384000910540F424912093F10031966150710963
:103850000196F2CF21E0089709F020E08091E8007E
:103860008E778093E800CBCF2111CCCF0AC0809116
:103870001402882361F0853061F08091E80083FDB7
:103880000AC08091E80082FFF2CF80E0089582E0D4
:10389000089583E0089581E00895982F973058F5B2
:1038A0009093E900981739F07091EC002091ED00A9
:1038B0005091F00003C0242F762F50E021FF19C053
:1038C0003091EB003E7F3093EB003091ED003D7F77
:1038D0003093ED003091EB0031603093EB0070934A
:1038E000EC002093ED005093F0002091EE0027FFB4
:1038F00007C09F5FD3CF8F708093E90081E0089568
:1039000080E008958091150287FF11C08091E80042
:1039100082FD05C0809114028111F8CF11C0809101
:10392000E8008B770BC080911402882349F08091C6
:10393000E80080FFF8CF8091E8008E778093E80060
:1039400008952091E4003091E50095E64091EC0067
:10395000842F817040FF22C08091E80080FD1CC050
:1039600080911402882391F0853091F08091EB00D2
:1039700085FD10C04091E4005091E50042175307C7
:1039800029F39A01915011F784E0089582E0089597
:1039900083E0089581E0089580E008954091E80073
:1039A00042FFDECF08950E94411D0E94491DE0EEB6
:1039B000F0E0808181608083E8EDF0E080818F77A6
:1039C000808319BCA7EDB0E08C918E7F8C938081B1
:1039D0008F7E80831092130208950F931F93CF93CD
:1039E000DF930E94411D0E94491DC8EDD0E08881EF
:1039F0008F77888388818068888388818F7D88839A
:103A000019BC10921402109210021092120210921D
:103A1000110200EE10E0F80180818B7F80838881A5
:103A20008160888342E060E080E00E944D1CE1EE0E
:103A3000F0E080818E7F8083E2EEF0E08081816023
:103A40008083808188608083F80180818E7F80837D
:103A5000888180618883DF91CF911F910F910895B4
:103A6000E8EDF0E080818F7E8083E7EDF0E08081FB
:103A70008160808384E082BF81E0809313020C9494
:103A8000ED1CE8EDF0E080818E7F80831092E200F3
:103A900008951092DA001092E10008951F920F929B
:103AA0000FB60F9211242F933F934F935F936F9311
:103AB0007F938F939F93AF93BF93EF93FF938091E7
:103AC000E10082FF0BC08091E20082FF07C080917D
:103AD000E1008B7F8093E1000E94BE1F8091DA009D
:103AE00080FF1FC08091D80080FF1BC08091DA004A
:103AF0008E7F8093DA008091D90080FF0DC080E135
:103B000089BD82E189BD09B400FEFDCF81E08093CB
:103B100014020E949A1905C019BC109214020E9446
:103B2000A8198091E10080FF19C08091E20080FF18
:103B300015C08091E2008E7F8093E2008091E200C8
:103B400080618093E2008091D80080628093D800E9
:103B500019BC85E0809314020E94AC198091E100A9
:103B600084FF30C08091E20084FF2CC080E189BDD9
:103B700082E189BD09B400FEFDCF8091D8008F7D20
:103B80008093D8008091E1008F7E8093E100809146
:103B9000E2008F7E8093E2008091E200816080935A
:103BA000E20080911002882311F084E007C0809128
:103BB000E30087FD02C081E001C083E0809314022E
:103BC0000E94AD198091E10083FF29C08091E2003D
:103BD00083FF25C08091E100877F8093E10082E030
:103BE00080931402109210028091E1008E7F8093E6
:103BF000E1008091E2008E7F8093E2008091E200FC
:103C000080618093E20042E060E080E00E944D1C11
:103C10008091F00088608093F0000E94AB19FF91C2
:103C2000EF91BF91AF919F918F917F916F915F9134
:103C30004F913F912F910F900FBE0F901F901895AD
:103C40001F920F920FB60F9211242F933F934F9311
:103C50005F936F937F938F939F93AF93BF93CF9314
:103C6000DF93EF93FF93C091E900CF708091EC0058
:103C7000D82FD17080FDD0E81092E9008091F0003B
:103C8000877F8093F00078940E94641E1092E90070
:103C90008091F00088608093F000CD2BCF70C093AE
:103CA000E900FF91EF91DF91CF91BF91AF919F918B
:103CB0008F917F916F915F914F913F912F910F90D5
:103CC0000FBE0F901F9018951F93CF93DF93CDB722
:103CD000DEB7AA970FB6F894DEBF0FBECDBFE5E101
:103CE000F2E088E08E0F9091F10091938E13FBCF5C
:103CF0000E94C3198091E80083FF28C180911502BA
:103D000090911602492F50E04A30510508F01EC12B
:103D1000FA01E556FF4F0C94EE1F803821F08238EF
:103D200009F014C108C080911102909112029923E8
:103D300089F082600FC0809119028F70873008F07F
:103D400005C18093E9008091EB0085FB882780F90D
:103D50001092E9009091E800977F9093E80080939B
:103D6000F1001092F100D0C0282F2D7F09F0EEC095
:103D7000882319F0823061F0E9C080911702813008
:103D800009F0E4C0933009F080E0809312022EC065
:103D90008091170281112AC0809119028F702FEF34
:103DA000280F263008F0D2C08093E9002091EB0064
:103DB00020FF1CC0933021F48091EB00806214C07E
:103DC0009091EB0090619093EB0021E030E0A9012D
:103DD00002C0440F551F8A95E2F74093EA00109203
:103DE000EA008091EB0088608093EB001092E9007C
:103DF0008091E800877F8093E8000E94821CA6C023
:103E00008111A4C0109117021F778091E300807880
:103E1000812B8093E3008091E800877F8093E80006
:103E20000E94821C8091E80080FFFCCF8091E3001B
:103E300080688093E300111102C082E001C083E03A
:103E40008093140283C08058823008F07FC0809134
:103E50001702909118028C3D53E0950779F583E0A5
:103E60008A838AE289834FB7F894DE01139620E0B3
:103E70003EE051E2E32FF0E050935700E49120FF41
:103E800003C0E295EF703F5FEF708E2F90E0EA3055
:103E900010F0C79601C0C0968D939D932F5F24317B
:103EA00049F74FBF8091E800877F8093E8006AE27E
:103EB00070E0CE0101960E94891B15C06091190225
:103EC00070911A02AE014F5F5F4F0E94B01ABC01A1
:103ED000892BE1F19091E800977F9093E800898128
:103EE0009A810E94EC1B8091E8008B778093E80018
:103EF0002DC0803859F58091E800877F8093E800D5
:103F0000809110028093F1008091E8008E7773CF4A
:103F100081111CC0909117029230C0F48091E8008A
:103F2000877F8093E800909310020E94821C80910A
:103F30001002811106C08091E30087FD02C081E07C
:103F400001C084E0809314020E94AF198091E800C0
:103F500083FF0AC08091E800877F8093E80080910A
:103F6000EB0080628093EB00AA960FB6F894DEBF58
:103F70000FBECDBFDF91CF911F9108950895CF93CC
:103F8000809114028823A1F0C091E900CF70909134
:103F9000EC00892F817090FD80E8C82B1092E90019
:103FA0008091E80083FD0E94641ECF70C093E900F9
:103FB000CF91089597FB072E16F4009407D077FD54
:103FC00009D00E94F41F07FC05D03EF4909581951E
:103FD0009F4F0895709561957F4F0895EE0FFF1FD5
:103FE0000590F491E02D0994AA1BBB1B51E107C079
:103FF000AA1FBB1FA617B70710F0A61BB70B881F79
:10400000991F5A95A9F780959095BC01CD01089507
:10401000F999FECF92BD81BDF89A992780B5089590
:10402000A8E1B0E042E050E00C943C20262FF99942
:10403000FECF92BD81BDF89A019700B4021639F007
:104040001FBA20BD0FB6F894FA9AF99A0FBE0895D8
:104050000396272F0E9417200E941620252F0E94CA
:104060001720242F0C9417200196272F0E94172029
:104070000C941620DC01CB01FC01F999FECF06C09F
:10408000F2BDE1BDF89A319600B40D924150504016
:08409000B8F70895F894FFCF82
:10409800B7012808140A321EA81846191B19E51872
:1040A800AB1801F4F5F6F7313332369190946697F0
:1040B800C63435404D3639A50358032203E9027C3E
:0840C800029502AE02C70200DE
:00000001FF
